{
  "contractName": "Users",
  "abi": [
    {
      "inputs": [],
      "payable": false,
      "stateMutability": "nonpayable",
      "type": "constructor"
    },
    {
      "anonymous": false,
      "inputs": [
        {
          "indexed": false,
          "internalType": "uint256",
          "name": "id",
          "type": "uint256"
        },
        {
          "indexed": false,
          "internalType": "string",
          "name": "hash",
          "type": "string"
        },
        {
          "indexed": false,
          "internalType": "string",
          "name": "name",
          "type": "string"
        },
        {
          "indexed": false,
          "internalType": "string",
          "name": "merge",
          "type": "string"
        },
        {
          "indexed": false,
          "internalType": "string",
          "name": "cityst",
          "type": "string"
        },
        {
          "indexed": false,
          "internalType": "string",
          "name": "cityend",
          "type": "string"
        },
        {
          "indexed": false,
          "internalType": "string",
          "name": "amount",
          "type": "string"
        },
        {
          "indexed": false,
          "internalType": "uint256",
          "name": "tipAmount",
          "type": "uint256"
        },
        {
          "indexed": false,
          "internalType": "address payable",
          "name": "author",
          "type": "address"
        }
      ],
      "name": "ImageCreated",
      "type": "event"
    },
    {
      "anonymous": false,
      "inputs": [
        {
          "indexed": false,
          "internalType": "uint256",
          "name": "id",
          "type": "uint256"
        },
        {
          "indexed": false,
          "internalType": "string",
          "name": "hash",
          "type": "string"
        },
        {
          "indexed": false,
          "internalType": "string",
          "name": "name",
          "type": "string"
        },
        {
          "indexed": false,
          "internalType": "string",
          "name": "merge",
          "type": "string"
        },
        {
          "indexed": false,
          "internalType": "string",
          "name": "cityst",
          "type": "string"
        },
        {
          "indexed": false,
          "internalType": "string",
          "name": "cityend",
          "type": "string"
        },
        {
          "indexed": false,
          "internalType": "string",
          "name": "amount",
          "type": "string"
        },
        {
          "indexed": false,
          "internalType": "address payable",
          "name": "author",
          "type": "address"
        }
      ],
      "name": "ImagePaid",
      "type": "event"
    },
    {
      "anonymous": false,
      "inputs": [
        {
          "indexed": false,
          "internalType": "uint256",
          "name": "id",
          "type": "uint256"
        },
        {
          "indexed": false,
          "internalType": "string",
          "name": "hash",
          "type": "string"
        },
        {
          "indexed": false,
          "internalType": "string",
          "name": "name",
          "type": "string"
        },
        {
          "indexed": false,
          "internalType": "string",
          "name": "merge",
          "type": "string"
        },
        {
          "indexed": false,
          "internalType": "string",
          "name": "cityst",
          "type": "string"
        },
        {
          "indexed": false,
          "internalType": "string",
          "name": "cityend",
          "type": "string"
        },
        {
          "indexed": false,
          "internalType": "uint256",
          "name": "tipAmount",
          "type": "uint256"
        },
        {
          "indexed": false,
          "internalType": "address payable",
          "name": "author",
          "type": "address"
        }
      ],
      "name": "ImageTipped",
      "type": "event"
    },
    {
      "constant": true,
      "inputs": [],
      "name": "imageCount",
      "outputs": [
        {
          "internalType": "uint256",
          "name": "",
          "type": "uint256"
        }
      ],
      "payable": false,
      "stateMutability": "view",
      "type": "function"
    },
    {
      "constant": true,
      "inputs": [
        {
          "internalType": "uint256",
          "name": "",
          "type": "uint256"
        }
      ],
      "name": "images",
      "outputs": [
        {
          "internalType": "uint256",
          "name": "id",
          "type": "uint256"
        },
        {
          "internalType": "string",
          "name": "hash",
          "type": "string"
        },
        {
          "internalType": "string",
          "name": "name",
          "type": "string"
        },
        {
          "internalType": "string",
          "name": "merge",
          "type": "string"
        },
        {
          "internalType": "string",
          "name": "cityst",
          "type": "string"
        },
        {
          "internalType": "string",
          "name": "cityend",
          "type": "string"
        },
        {
          "internalType": "string",
          "name": "amount",
          "type": "string"
        },
        {
          "internalType": "uint256",
          "name": "tipAmount",
          "type": "uint256"
        },
        {
          "internalType": "address payable",
          "name": "author",
          "type": "address"
        }
      ],
      "payable": false,
      "stateMutability": "view",
      "type": "function"
    },
    {
      "constant": true,
      "inputs": [],
      "name": "name",
      "outputs": [
        {
          "internalType": "string",
          "name": "",
          "type": "string"
        }
      ],
      "payable": false,
      "stateMutability": "view",
      "type": "function"
    },
    {
      "constant": false,
      "inputs": [
        {
          "internalType": "string",
          "name": "_imgHash",
          "type": "string"
        },
        {
          "internalType": "string",
          "name": "_name",
          "type": "string"
        },
        {
          "internalType": "string",
          "name": "_merge",
          "type": "string"
        },
        {
          "internalType": "string",
          "name": "_cityst",
          "type": "string"
        },
        {
          "internalType": "string",
          "name": "_cityend",
          "type": "string"
        },
        {
          "internalType": "string",
          "name": "_amount",
          "type": "string"
        }
      ],
      "name": "uploadImage",
      "outputs": [],
      "payable": false,
      "stateMutability": "nonpayable",
      "type": "function"
    },
    {
      "constant": false,
      "inputs": [
        {
          "internalType": "uint256",
          "name": "_id",
          "type": "uint256"
        }
      ],
      "name": "tipImageOwner",
      "outputs": [],
      "payable": true,
      "stateMutability": "payable",
      "type": "function"
    },
    {
      "constant": false,
      "inputs": [
        {
          "internalType": "uint256",
          "name": "_id",
          "type": "uint256"
        }
      ],
      "name": "payImageOwner",
      "outputs": [],
      "payable": true,
      "stateMutability": "payable",
      "type": "function"
    }
  ],
  "bytecode": "0x608060405260006001553480156200001657600080fd5b506040518060400160405280600c81526020017f446563656e7472616772616d000000000000000000000000000000000000000081525060009080519060200190620000649291906200006b565b506200011a565b828054600181600116156101000203166002900490600052602060002090601f016020900481019282601f10620000ae57805160ff1916838001178555620000df565b82800160010185558215620000df579182015b82811115620000de578251825591602001919060010190620000c1565b5b509050620000ee9190620000f2565b5090565b6200011791905b8082111562000113576000816000905550600101620000f9565b5090565b90565b6124f1806200012a6000396000f3fe6080604052600436106100555760003560e01c806306fdde031461005a5780632378902d146100ea57806384856482146104a55780638567ade8146107b657806392053b63146107e4578063c7e33b571461080f575b600080fd5b34801561006657600080fd5b5061006f61083d565b6040518080602001828103825283818151815260200191508051906020019080838360005b838110156100af578082015181840152602081019050610094565b50505050905090810190601f1680156100dc5780820380516001836020036101000a031916815260200191505b509250505060405180910390f35b3480156100f657600080fd5b506104a3600480360360c081101561010d57600080fd5b810190808035906020019064010000000081111561012a57600080fd5b82018360208201111561013c57600080fd5b8035906020019184600183028401116401000000008311171561015e57600080fd5b91908080601f016020809104026020016040519081016040528093929190818152602001838380828437600081840152601f19601f820116905080830192505050505050509192919290803590602001906401000000008111156101c157600080fd5b8201836020820111156101d357600080fd5b803590602001918460018302840111640100000000831117156101f557600080fd5b91908080601f016020809104026020016040519081016040528093929190818152602001838380828437600081840152601f19601f8201169050808301925050505050505091929192908035906020019064010000000081111561025857600080fd5b82018360208201111561026a57600080fd5b8035906020019184600183028401116401000000008311171561028c57600080fd5b91908080601f016020809104026020016040519081016040528093929190818152602001838380828437600081840152601f19601f820116905080830192505050505050509192919290803590602001906401000000008111156102ef57600080fd5b82018360208201111561030157600080fd5b8035906020019184600183028401116401000000008311171561032357600080fd5b91908080601f016020809104026020016040519081016040528093929190818152602001838380828437600081840152601f19601f8201169050808301925050505050505091929192908035906020019064010000000081111561038657600080fd5b82018360208201111561039857600080fd5b803590602001918460018302840111640100000000831117156103ba57600080fd5b91908080601f016020809104026020016040519081016040528093929190818152602001838380828437600081840152601f19601f8201169050808301925050505050505091929192908035906020019064010000000081111561041d57600080fd5b82018360208201111561042f57600080fd5b8035906020019184600183028401116401000000008311171561045157600080fd5b91908080601f016020809104026020016040519081016040528093929190818152602001838380828437600081840152601f19601f8201169050808301925050505050505091929192905050506108db565b005b3480156104b157600080fd5b506104de600480360360208110156104c857600080fd5b8101908080359060200190929190505050610e02565b604051808a81526020018060200180602001806020018060200180602001806020018981526020018873ffffffffffffffffffffffffffffffffffffffff1673ffffffffffffffffffffffffffffffffffffffff16815260200187810387528f818151815260200191508051906020019080838360005b83811015610570578082015181840152602081019050610555565b50505050905090810190601f16801561059d5780820380516001836020036101000a031916815260200191505b5087810386528e818151815260200191508051906020019080838360005b838110156105d65780820151818401526020810190506105bb565b50505050905090810190601f1680156106035780820380516001836020036101000a031916815260200191505b5087810385528d818151815260200191508051906020019080838360005b8381101561063c578082015181840152602081019050610621565b50505050905090810190601f1680156106695780820380516001836020036101000a031916815260200191505b5087810384528c818151815260200191508051906020019080838360005b838110156106a2578082015181840152602081019050610687565b50505050905090810190601f1680156106cf5780820380516001836020036101000a031916815260200191505b5087810383528b818151815260200191508051906020019080838360005b838110156107085780820151818401526020810190506106ed565b50505050905090810190601f1680156107355780820380516001836020036101000a031916815260200191505b5087810382528a818151815260200191508051906020019080838360005b8381101561076e578082015181840152602081019050610753565b50505050905090810190601f16801561079b5780820380516001836020036101000a031916815260200191505b509f5050505050505050505050505050505060405180910390f35b6107e2600480360360208110156107cc57600080fd5b8101908080359060200190929190505050611200565b005b3480156107f057600080fd5b506107f9611aad565b6040518082815260200191505060405180910390f35b61083b6004803603602081101561082557600080fd5b8101908080359060200190929190505050611ab3565b005b60008054600181600116156101000203166002900480601f0160208091040260200160405190810160405280929190818152602001828054600181600116156101000203166002900480156108d35780601f106108a8576101008083540402835291602001916108d3565b820191906000526020600020905b8154815290600101906020018083116108b657829003601f168201915b505050505081565b60008651116108e957600080fd5b60008551116108f757600080fd5b600084511161090557600080fd5b600083511161091357600080fd5b600082511161092157600080fd5b600073ffffffffffffffffffffffffffffffffffffffff163373ffffffffffffffffffffffffffffffffffffffff16141561095b57600080fd5b600081511161096957600080fd5b6001600081548092919060010191905055506040518061012001604052806001548152602001878152602001868152602001858152602001848152602001838152602001828152602001600081526020013373ffffffffffffffffffffffffffffffffffffffff16815250600260006001548152602001908152602001600020600082015181600001556020820151816001019080519060200190610a0f9291906123b5565b506040820151816002019080519060200190610a2c9291906123b5565b506060820151816003019080519060200190610a499291906123b5565b506080820151816004019080519060200190610a669291906123b5565b5060a0820151816005019080519060200190610a839291906123b5565b5060c0820151816006019080519060200190610aa09291906123b5565b5060e082015181600701556101008201518160080160006101000a81548173ffffffffffffffffffffffffffffffffffffffff021916908373ffffffffffffffffffffffffffffffffffffffff1602179055509050507f76c01610753b614dbc429d4b6c42db9ec72f61bb93b15fa84160854030689912600154878787878787600033604051808a81526020018060200180602001806020018060200180602001806020018981526020018873ffffffffffffffffffffffffffffffffffffffff1673ffffffffffffffffffffffffffffffffffffffff16815260200187810387528f818151815260200191508051906020019080838360005b83811015610bb5578082015181840152602081019050610b9a565b50505050905090810190601f168015610be25780820380516001836020036101000a031916815260200191505b5087810386528e818151815260200191508051906020019080838360005b83811015610c1b578082015181840152602081019050610c00565b50505050905090810190601f168015610c485780820380516001836020036101000a031916815260200191505b5087810385528d818151815260200191508051906020019080838360005b83811015610c81578082015181840152602081019050610c66565b50505050905090810190601f168015610cae5780820380516001836020036101000a031916815260200191505b5087810384528c818151815260200191508051906020019080838360005b83811015610ce7578082015181840152602081019050610ccc565b50505050905090810190601f168015610d145780820380516001836020036101000a031916815260200191505b5087810383528b818151815260200191508051906020019080838360005b83811015610d4d578082015181840152602081019050610d32565b50505050905090810190601f168015610d7a5780820380516001836020036101000a031916815260200191505b5087810382528a818151815260200191508051906020019080838360005b83811015610db3578082015181840152602081019050610d98565b50505050905090810190601f168015610de05780820380516001836020036101000a031916815260200191505b509f5050505050505050505050505050505060405180910390a1505050505050565b6002602052806000526040600020600091509050806000015490806001018054600181600116156101000203166002900480601f016020809104026020016040519081016040528092919081815260200182805460018160011615610100020316600290048015610eb45780601f10610e8957610100808354040283529160200191610eb4565b820191906000526020600020905b815481529060010190602001808311610e9757829003601f168201915b505050505090806002018054600181600116156101000203166002900480601f016020809104026020016040519081016040528092919081815260200182805460018160011615610100020316600290048015610f525780601f10610f2757610100808354040283529160200191610f52565b820191906000526020600020905b815481529060010190602001808311610f3557829003601f168201915b505050505090806003018054600181600116156101000203166002900480601f016020809104026020016040519081016040528092919081815260200182805460018160011615610100020316600290048015610ff05780601f10610fc557610100808354040283529160200191610ff0565b820191906000526020600020905b815481529060010190602001808311610fd357829003601f168201915b505050505090806004018054600181600116156101000203166002900480601f01602080910402602001604051908101604052809291908181526020018280546001816001161561010002031660029004801561108e5780601f106110635761010080835404028352916020019161108e565b820191906000526020600020905b81548152906001019060200180831161107157829003601f168201915b505050505090806005018054600181600116156101000203166002900480601f01602080910402602001604051908101604052809291908181526020018280546001816001161561010002031660029004801561112c5780601f106111015761010080835404028352916020019161112c565b820191906000526020600020905b81548152906001019060200180831161110f57829003601f168201915b505050505090806006018054600181600116156101000203166002900480601f0160208091040260200160405190810160405280929190818152602001828054600181600116156101000203166002900480156111ca5780601f1061119f576101008083540402835291602001916111ca565b820191906000526020600020905b8154815290600101906020018083116111ad57829003601f168201915b5050505050908060070154908060080160009054906101000a900473ffffffffffffffffffffffffffffffffffffffff16905089565b60008111801561121257506001548111155b61121b57600080fd5b611223612435565b600260008381526020019081526020016000206040518061012001604052908160008201548152602001600182018054600181600116156101000203166002900480601f0160208091040260200160405190810160405280929190818152602001828054600181600116156101000203166002900480156112e55780601f106112ba576101008083540402835291602001916112e5565b820191906000526020600020905b8154815290600101906020018083116112c857829003601f168201915b50505050508152602001600282018054600181600116156101000203166002900480601f0160208091040260200160405190810160405280929190818152602001828054600181600116156101000203166002900480156113875780601f1061135c57610100808354040283529160200191611387565b820191906000526020600020905b81548152906001019060200180831161136a57829003601f168201915b50505050508152602001600382018054600181600116156101000203166002900480601f0160208091040260200160405190810160405280929190818152602001828054600181600116156101000203166002900480156114295780601f106113fe57610100808354040283529160200191611429565b820191906000526020600020905b81548152906001019060200180831161140c57829003601f168201915b50505050508152602001600482018054600181600116156101000203166002900480601f0160208091040260200160405190810160405280929190818152602001828054600181600116156101000203166002900480156114cb5780601f106114a0576101008083540402835291602001916114cb565b820191906000526020600020905b8154815290600101906020018083116114ae57829003601f168201915b50505050508152602001600582018054600181600116156101000203166002900480601f01602080910402602001604051908101604052809291908181526020018280546001816001161561010002031660029004801561156d5780601f106115425761010080835404028352916020019161156d565b820191906000526020600020905b81548152906001019060200180831161155057829003601f168201915b50505050508152602001600682018054600181600116156101000203166002900480601f01602080910402602001604051908101604052809291908181526020018280546001816001161561010002031660029004801561160f5780601f106115e45761010080835404028352916020019161160f565b820191906000526020600020905b8154815290600101906020018083116115f257829003601f168201915b50505050508152602001600782015481526020016008820160009054906101000a900473ffffffffffffffffffffffffffffffffffffffff1673ffffffffffffffffffffffffffffffffffffffff1673ffffffffffffffffffffffffffffffffffffffff16815250509050600081610100015190508073ffffffffffffffffffffffffffffffffffffffff166108fc349081150290604051600060405180830381858888f193505050501580156116ca573d6000803e3d6000fd5b50348260e00151018260e001818152505081600260008581526020019081526020016000206000820151816000015560208201518160010190805190602001906117159291906123b5565b5060408201518160020190805190602001906117329291906123b5565b50606082015181600301908051906020019061174f9291906123b5565b50608082015181600401908051906020019061176c9291906123b5565b5060a08201518160050190805190602001906117899291906123b5565b5060c08201518160060190805190602001906117a69291906123b5565b5060e082015181600701556101008201518160080160006101000a81548173ffffffffffffffffffffffffffffffffffffffff021916908373ffffffffffffffffffffffffffffffffffffffff1602179055509050507f28c9c1b86e005b26ab6f6db5f4505c62d0c30967687ef576ced190a728c346468383602001518460400151856060015186608001518760a001518860e00151886040518089815260200180602001806020018060200180602001806020018881526020018773ffffffffffffffffffffffffffffffffffffffff1673ffffffffffffffffffffffffffffffffffffffff16815260200186810386528d818151815260200191508051906020019080838360005b838110156118cb5780820151818401526020810190506118b0565b50505050905090810190601f1680156118f85780820380516001836020036101000a031916815260200191505b5086810385528c818151815260200191508051906020019080838360005b83811015611931578082015181840152602081019050611916565b50505050905090810190601f16801561195e5780820380516001836020036101000a031916815260200191505b5086810384528b818151815260200191508051906020019080838360005b8381101561199757808201518184015260208101905061197c565b50505050905090810190601f1680156119c45780820380516001836020036101000a031916815260200191505b5086810383528a818151815260200191508051906020019080838360005b838110156119fd5780820151818401526020810190506119e2565b50505050905090810190601f168015611a2a5780820380516001836020036101000a031916815260200191505b50868103825289818151815260200191508051906020019080838360005b83811015611a63578082015181840152602081019050611a48565b50505050905090810190601f168015611a905780820380516001836020036101000a031916815260200191505b509d505050505050505050505050505060405180910390a1505050565b60015481565b600081118015611ac557506001548111155b611ace57600080fd5b611ad6612435565b600260008381526020019081526020016000206040518061012001604052908160008201548152602001600182018054600181600116156101000203166002900480601f016020809104026020016040519081016040528092919081815260200182805460018160011615610100020316600290048015611b985780601f10611b6d57610100808354040283529160200191611b98565b820191906000526020600020905b815481529060010190602001808311611b7b57829003601f168201915b50505050508152602001600282018054600181600116156101000203166002900480601f016020809104026020016040519081016040528092919081815260200182805460018160011615610100020316600290048015611c3a5780601f10611c0f57610100808354040283529160200191611c3a565b820191906000526020600020905b815481529060010190602001808311611c1d57829003601f168201915b50505050508152602001600382018054600181600116156101000203166002900480601f016020809104026020016040519081016040528092919081815260200182805460018160011615610100020316600290048015611cdc5780601f10611cb157610100808354040283529160200191611cdc565b820191906000526020600020905b815481529060010190602001808311611cbf57829003601f168201915b50505050508152602001600482018054600181600116156101000203166002900480601f016020809104026020016040519081016040528092919081815260200182805460018160011615610100020316600290048015611d7e5780601f10611d5357610100808354040283529160200191611d7e565b820191906000526020600020905b815481529060010190602001808311611d6157829003601f168201915b50505050508152602001600582018054600181600116156101000203166002900480601f016020809104026020016040519081016040528092919081815260200182805460018160011615610100020316600290048015611e205780601f10611df557610100808354040283529160200191611e20565b820191906000526020600020905b815481529060010190602001808311611e0357829003601f168201915b50505050508152602001600682018054600181600116156101000203166002900480601f016020809104026020016040519081016040528092919081815260200182805460018160011615610100020316600290048015611ec25780601f10611e9757610100808354040283529160200191611ec2565b820191906000526020600020905b815481529060010190602001808311611ea557829003601f168201915b50505050508152602001600782015481526020016008820160009054906101000a900473ffffffffffffffffffffffffffffffffffffffff1673ffffffffffffffffffffffffffffffffffffffff1673ffffffffffffffffffffffffffffffffffffffff16815250509050600081610100015190508073ffffffffffffffffffffffffffffffffffffffff166108fc349081150290604051600060405180830381858888f19350505050158015611f7d573d6000803e3d6000fd5b508160026000858152602001908152602001600020600082015181600001556020820151816001019080519060200190611fb89291906123b5565b506040820151816002019080519060200190611fd59291906123b5565b506060820151816003019080519060200190611ff29291906123b5565b50608082015181600401908051906020019061200f9291906123b5565b5060a082015181600501908051906020019061202c9291906123b5565b5060c08201518160060190805190602001906120499291906123b5565b5060e082015181600701556101008201518160080160006101000a81548173ffffffffffffffffffffffffffffffffffffffff021916908373ffffffffffffffffffffffffffffffffffffffff1602179055509050507f1a8e806b8e851225ae7d7615d624cebd91a5856930cf4a63c6666415ae7aacd28383602001518460400151856060015186608001518760a001518860c0015188604051808981526020018060200180602001806020018060200180602001806020018873ffffffffffffffffffffffffffffffffffffffff1673ffffffffffffffffffffffffffffffffffffffff16815260200187810387528e818151815260200191508051906020019080838360005b8381101561216c578082015181840152602081019050612151565b50505050905090810190601f1680156121995780820380516001836020036101000a031916815260200191505b5087810386528d818151815260200191508051906020019080838360005b838110156121d25780820151818401526020810190506121b7565b50505050905090810190601f1680156121ff5780820380516001836020036101000a031916815260200191505b5087810385528c818151815260200191508051906020019080838360005b8381101561223857808201518184015260208101905061221d565b50505050905090810190601f1680156122655780820380516001836020036101000a031916815260200191505b5087810384528b818151815260200191508051906020019080838360005b8381101561229e578082015181840152602081019050612283565b50505050905090810190601f1680156122cb5780820380516001836020036101000a031916815260200191505b5087810383528a818151815260200191508051906020019080838360005b838110156123045780820151818401526020810190506122e9565b50505050905090810190601f1680156123315780820380516001836020036101000a031916815260200191505b50878103825289818151815260200191508051906020019080838360005b8381101561236a57808201518184015260208101905061234f565b50505050905090810190601f1680156123975780820380516001836020036101000a031916815260200191505b509e50505050505050505050505050505060405180910390a1505050565b828054600181600116156101000203166002900490600052602060002090601f016020900481019282601f106123f657805160ff1916838001178555612424565b82800160010185558215612424579182015b82811115612423578251825591602001919060010190612408565b5b5090506124319190612497565b5090565b6040518061012001604052806000815260200160608152602001606081526020016060815260200160608152602001606081526020016060815260200160008152602001600073ffffffffffffffffffffffffffffffffffffffff1681525090565b6124b991905b808211156124b557600081600090555060010161249d565b5090565b9056fea265627a7a7231582021113dc44e3de0f7e70ee9fffc4f177b037f8b852098d7219a60c7c1ea168ad064736f6c63430005100032",
  "source": "pragma solidity ^0.5.0;\r\n\r\ncontract Users {\r\n    string public name;\r\n    uint256 public imageCount = 0;\r\n    mapping(uint256 => Image) public images;\r\n\r\n    struct Image {\r\n        uint256 id;\r\n        string hash;\r\n        string name;\r\n        string merge;\r\n        string cityst;\r\n        string cityend;\r\n        string amount;\r\n        uint256 tipAmount;\r\n        address payable author;\r\n    }\r\n\r\n    event ImageCreated(\r\n        uint256 id,\r\n        string hash,\r\n        string name,\r\n        string merge,\r\n        string cityst,\r\n        string cityend,\r\n        string amount,\r\n        uint256 tipAmount,\r\n        address payable author\r\n    );\r\n\r\n    event ImageTipped(\r\n        uint256 id,\r\n        string hash,\r\n        string name,\r\n        string merge,\r\n        string cityst,\r\n        string cityend,\r\n        uint256 tipAmount,\r\n        address payable author\r\n    );\r\n\r\n    event ImagePaid(\r\n        uint256 id,\r\n        string hash,\r\n        string name,\r\n        string merge,\r\n        string cityst,\r\n        string cityend,\r\n        string amount,\r\n        address payable author\r\n    );\r\n\r\n    constructor() public {\r\n        name = \"Decentragram\";\r\n    }\r\n\r\n    function uploadImage(\r\n        string memory _imgHash,\r\n        string memory _name,\r\n        string memory _merge,\r\n        string memory _cityst,\r\n        string memory _cityend,\r\n        string memory _amount\r\n    ) public {\r\n        // Make sure the image hash exists\r\n        require(bytes(_imgHash).length > 0);\r\n        // Make sure image name exists\r\n        require(bytes(_name).length > 0);\r\n        require(bytes(_merge).length > 0);\r\n        require(bytes(_cityst).length > 0);\r\n        require(bytes(_cityend).length > 0);\r\n        // Make sure uploader address exists\r\n        require(msg.sender != address(0));\r\n\r\n        require(bytes(_amount).length > 0);\r\n\r\n        // Increment image id\r\n        imageCount++;\r\n\r\n        // Add Image to the contract\r\n        images[imageCount] = Image(\r\n            imageCount,\r\n            _imgHash,\r\n            _name,\r\n            _merge,\r\n            _cityst,\r\n            _cityend,\r\n            _amount,\r\n            0,\r\n            msg.sender\r\n        );\r\n        // Trigger an event\r\n        emit ImageCreated(\r\n            imageCount,\r\n            _imgHash,\r\n            _name,\r\n            _merge,\r\n            _cityst,\r\n            _cityend,\r\n            _amount,\r\n            0,\r\n            msg.sender\r\n        );\r\n    }\r\n\r\n    function tipImageOwner(uint256 _id) public payable {\r\n        // Make sure the id is valid\r\n        require(_id > 0 && _id <= imageCount);\r\n        // Fetch the image\r\n        Image memory _image = images[_id];\r\n        // Fetch the author\r\n        address payable _author = _image.author;\r\n        // Pay the author by sending them Ether\r\n        address(_author).transfer(msg.value);\r\n        // Increment the tip amount\r\n        _image.tipAmount = _image.tipAmount + msg.value;\r\n        // Update the image\r\n        images[_id] = _image;\r\n        // Trigger an event\r\n        emit ImageTipped(\r\n            _id,\r\n            _image.hash,\r\n            _image.name,\r\n            _image.merge,\r\n            _image.cityst,\r\n            _image.cityend,\r\n            _image.tipAmount,\r\n            _author\r\n        );\r\n    }\r\n\r\n    function payImageOwner(uint256 _id) public payable {\r\n        // Make sure the id is valid\r\n        require(_id > 0 && _id <= imageCount);\r\n        // Fetch the image\r\n        Image memory _image = images[_id];\r\n        // Fetch the author\r\n        address payable _author = _image.author;\r\n        // Pay the author by sending them Ether\r\n        address(_author).transfer(msg.value);\r\n        // Increment the tip amount\r\n        // _image.amount = 0;\r\n        // Update the image\r\n        images[_id] = _image;\r\n        // Trigger an event\r\n        emit ImagePaid(\r\n            _id,\r\n            _image.hash,\r\n            _image.name,\r\n            _image.merge,\r\n            _image.cityst,\r\n            _image.cityend,\r\n            _image.amount,\r\n            _author\r\n        );\r\n    }\r\n}\r\n",
  "sourcePath": "D:/programming/Blockchain Projects/rider-t3/src/contracts/Users.sol",
  "compiler": {
    "name": "solc",
    "version": "0.5.16+commit.9c3226ce.Emscripten.clang"
  },
  "schemaVersion": "3.2.3",
  "updatedAt": "2021-04-13T21:50:44.110Z",
  "networkType": "ethereum",
  "devdoc": {
    "methods": {}
  },
  "userdoc": {
    "methods": {}
  }
}